:100000000C942A000C9434000C9434000C943400AA
:100010000C9434000C9434000C9434000C94340090
:100020000C9434000C9434000C9434000C94340080
:100030000C9434000C9434000C9434000C94340070
:100040000C9434000C9434000C9434000C94340060
:100050000C94340011241FBECFE5D8E0DEBFCDBF25
:100060000E9436000C944B000C94000088EF81BB7A
:100070008FEF87BB12BA95E793BF19BE14BA8CBF36
:1000800096E6809B03C084BB9CBFFBCF8099F9CFD1
:0A00900014BA8CBFF6CFF894FFCF2E
:00000001FF
